:020000040000FA
:040000000EEF00F00F
:040008007EEF03F094
:100018003BEF01F010EF03F0D3AE15EF00F0A8EFBF
:1000280000F0EBEC0CF00009D8B41DEF00F01FEF66
:1000380000F05BEF00F02CEF00F0B3EC0CF0A7EF52
:1000480000F0BDEC0DF0A7EF00F0000EA7EF00F0F8
:1000580072C03CF073C03DF020EE66F002D83FEF6E
:1000680000F00500FA6EDE50FD6EDE50FE6EF850B0
:10007800FF6EFA5012003E6E3F6A3F50000AD8B435
:1000880048EF00F029EF00F03E50010AD8B429EFFC
:1000980000F0030AD8B421EF00F0010AD8B425EF24
:1000A80000F0070AD8B429EF00F029EF00F0E0ECDF
:1000B8000CF00009D8B463EF00F065EF00F0A6EF8C
:1000C80000F000018351030B0009D8B46EEF00F073
:1000D80070EF00F07CEF00F0010E3E6E8351030BD1
:1000E8003F6E3E503F5E83513F18FC0B3F18836FB5
:1000F8006000F7F1D9FF6000FBF1DAFFDF50426ED4
:100108007D4B7E2B7F07D8A080077F518011D8A414
:1001180090EF00F092EF00F09AEF00F0D1EC05F0CC
:100128003E6E3E50406E416A9EEF00F0000E416EFA
:10013800030E406E40C043F0425018EC0EF043509E
:10014800A7EF00F0030E120038EC0DF00009D8B448
:10015800B0EF00F0B2EF00F0EEEF00F0BFEF00F00C
:10016800D9EC0DF03AEF01F098EC0EF03AEF01F00F
:10017800000E3AEF01F072C030F073C031F020EE9B
:1001880066F002D8D2EF00F00500FA6EDE50FD6E80
:10019800DE50FE6EF850FF6EFA501200326E336A6F
:1001A8003350000AD8B4DBEF00F0BCEF00F0325057
:1001B800010AD8B4BCEF00F0030AD8B4B4EF00F0D9
:1001C800010AD8B4B8EF00F0070AD8B4BCEF00F0C1
:1001D800BCEF00F02DEC0DF00009D8B4F6EF00F0FC
:1001E800F8EF00F039EF01F000018351030B00092B
:1001F800D8B401EF01F003EF01F00FEF01F0010EA9
:10020800326E8351030B336E3250335E8351331891
:10021800FC0B3318836F6000F7F1D9FF6000FBF126
:10022800DAFFDF50366E7D4B7E2B7F07D8A0800724
:100238007F518011D8A423EF01F025EF01F02DEFB5
:1002480001F0D7EC06F0326E3250346E356A31EF79
:1002580001F0000E356E030E346E34C037F03650A0
:1002680027EC0EF037503AEF01F0030E12006F0042
:1002780060FF44F06F00D8FF45F06F00DCFF46F0E8
:100288006F00E0FF47F06F00D4FF48F0390196A5F2
:1002980050EF01F052EF01F069EF01F0A6A557EF1A
:1002A80001F059EF01F069EF01F002D867EF01F0B2
:1002B80005000001FA6EF851FD6EF951FE6EF85016
:1002C800FF6EFA50120079EF01F093AF6EEF01F074
:1002D80070EF01F079EF01F0A3AF75EF01F077EF60
:1002E80001F079EF01F079EC0DF0390196A17FEF7B
:1002F80001F081EF01F097EF01F0A6A186EF01F080
:1003080088EF01F097EF01F002D895EF01F00500B2
:10031800FA6E0550FD6E0650FE6EF850FF6EFA50EC
:100328001200A7EF01F096A39CEF01F09EEF01F0F9
:10033800A7EF01F0A6A3A3EF01F0A5EF01F0A7EF47
:1003480001F088EF01F0600023F1F5FF60001FF174
:10035800F8FF60001BF1F7FF600017F1F6FF60007F
:1003680013F1D8FF1100010E1A6E6F00A0F734F0D8
:10037800212A092A0001FB51D8A4C5EF01F0C7EFD3
:1003880001F02AEF02F0FA51D8A4CDEF01F0CFEF37
:1003980001F0E1EF01F00168026821EEFEF1600072
:1003A800D3F0DFFFFA2B000E6F00A0FFFFF5000E61
:1003B8006F00A0FF01F61EEF02F0FA05D8A4E7EFE0
:1003C80001F0E9EF01F0F1EF01F021EE00F2600039
:1003D800D3F0DFFFFA2B1EEF02F0020EFA19D8A4B1
:1003E800F8EF01F0FAEF01F01EEF02F06100FFF7FD
:1003F800E8FFFF0AD8A403EF02F005EF02F009EFC7
:1004080002F0FE0E6F00A0FFFFF521EEFFF1DF50B6
:10041800326E336A020E3224D96E060E3320DA6E3B
:100428006000D3F0DFFF6100FFF7E8FF010F6F0006
:10043800A0FFFFF5010E8EEC0CF0000E046E000E0E
:10044800036E345063EC0BF0010E076E1200030EBE
:100458000001FE6F000E1A6E6F0040F73EF0FB5170
:10046800D8A439EF02F03BEF02F09DEF02F0400E06
:100478003E18D8A442EF02F044EF02F05FEF02F01A
:100488001550D8A44AEF02F04CEF02F05FEF02F0EB
:1004980001680268000E6F00A0FF01F6152A000E21
:1004A800A06F000EA16F000EA26F000EA36F000ECA
:1004B8001D6E78EF02F01504D8A465EF02F067EF1F
:1004C80002F06EEF02F0152A3EC017F0000E0A6E19
:1004D80078EF02F0000E0A24D96EDA6A030EDA22E7
:1004E8006000FBF0DFFF0A2A17500A18D8A47FEF34
:1004F80002F081EF02F091EF02F0FF0E6F00A0FF13
:10050800FEF5010EFB6F17C018F0000E156E010EF8
:10051800166E020EFA6F000E0A6E010E67EC0CF0F2
:10052800000E046E000E036E3E5031EC0BF0010E0F
:10053800076E1200000E0301816F0201FDBFA9EFD3
:1005480002F0A7EF02F0B0EF02F0FC6DFD1FD8B08B
:10055800FD2B010E0301816F0201FBBFB8EF02F012
:10056800B6EF02F0BFEF02F0FA6DFB1FD8B0FB2B1D
:10057800010E0301811B000E0301836F000E826FC1
:100588000201FC51FD11D8B4CCEF02F0CEEF02F01D
:10059800FEEF02F0010E0301806FD8EF02F0D89051
:1005A800FC37FD370301802B0201FDAFDEEF02F0BF
:1005B800E0EF02F0D3EF02F00301D89082378337DF
:1005C8000201FC51FA5DFD51FB59D8A0EEEF02F093
:1005D800F0EF02F0F6EF02F0FC51FA5FFD51FB5B21
:1005E800030182810201D890FD33FC330301802F7F
:1005F800E0EF02F003018151D8B405EF03F007EFF3
:1006080003F00BEF03F0826D831FD8B0832B82C3F6
:10061800FAF283C3FBF21200E58EE59CB20EF66E89
:10062800180EF76E000EF86E00EEDCF110EE1CF0FE
:1006380009006F00D7FFEEFFE550E150F9E13C0EED
:10064800F66E1D0EF76E000EF86E09006F00D4FFEF
:10065800FCF009006F00D4FFFDF009006F00D4FF23
:10066800FEF0440EF66E1D0EF76E000EF86E0900D1
:100678006F00D4FF4BF001EEFEF110EE03F1EE6ACD
:10068800E550E150FCE1E250FAE101EE00F1FE0E26
:10069800EE6AE806FDE101EE00F0C80EEE6AE80633
:1006A800FDE100EE00F3800EEE6AE806FDE100EEE3
:1006B80000F2FA0EEE6AE806FDE100EE00F1DC0E4B
:1006C800EE6AE806FDE100EE60F0920EEE6AE806DA
:1006D800FDE100EE01F02F0EEE6AE806FDE1080EDE
:1006E800D56E000ED66E000ED76E000EF86E0001A5
:1006F80054EF07F06F00D8FF38F06F00DCFF39F0D7
:100708006F00E0FF3AF06F00D4FF3BF0390193A788
:1007180090EF03F092EF03F0A7EF03F0A3A797EF92
:1007280003F099EF03F0A7EF03F002D8A7EF03F067
:1007380005000001FA6EF651FD6EF751FE6EF85095
:10074800FF6EFA501200390195ADADEF03F0AFEF2F
:1007580003F0C5EF03F0A5ADB4EF03F0B6EF03F077
:10076800C5EF03F002D8C3EF03F00500FA6E055099
:10077800FD6E0650FE6EF850FF6EFA501200D5EF6F
:1007880003F095AFCAEF03F0CCEF03F0D5EF03F019
:10079800A5AFD1EF03F0D3EF03F0D5EF03F0B6EF39
:1007A80003F06000EFF0F5FF6000EBF0F8FF600089
:1007B800E7F0F7FF6000E3F0F6FF1100000EBE6EF1
:1007C800000EBD6E000EBA6E000EBB6E000EBC6E43
:1007D800000EC66EDF0EC26E810EC36EBF0EC46EF3
:1007E800C598EF0E3A01706F5F0E606F790E506F0B
:1007F800070E806FFB0E406F000E716F000E816F49
:10080800000E516F000E416F000E616F000E5A6F9F
:10081800000E5B6F000E6A6F000E6B6F000E7A6F32
:10082800000E7B6F000E826F000E426F060E526F35
:10083800180E626F000E726F4369536963697369BA
:10084800070E836F44695469646974690F0E846F75
:100858000F0EE86F160E0E6F130E166F170EE56F5C
:10086800090EE36F230E096F240E0A6F0A0EE46F58
:100878001200D3AE42EF04F0E8EF04F000018389E0
:1008880066EF04F066EC0EF0080E93EF04F066ECE9
:100898000EF0070E93EF04F000017F291DEC0EF017
:1008A800040E93EF04F0070E00018119D8B45FEF2E
:1008B80004F061EF04F063EF04F069EC0EF00F0E42
:1008C80093EF04F06CC03CF06DC03DF002D877EFB8
:1008D80004F00500FA6E6051FD6E6151FE6EF8502D
:1008E800FF6EFA5012003E6E3F6A3F50000AD8B4BD
:1008F80080EF04F057EF04F03E50010AD8B457EFE8
:1009080004F0030AD8B44BEF04F0010AD8B446EF58
:1009180004F0070AD8B450EF04F057EF04F01200BF
:10092800D3AE99EF04F03AEF05F0F6EC0CF00009BD
:10093800D8A4A1EF04F0A3EF04F0A6EF04F0040E8E
:10094800E7EF04F000018351030B0009D8B4AFEFBF
:1009580004F0B1EF04F0BDEF04F0010E406E8351D6
:10096800030B416E4050415E83514118FC0B411806
:10097800836F7F07D8A080077F518011D8B4C7EF55
:1009880004F0C9EF04F0D7EF04F063EC0EF0600058
:10099800F7F1D9FF6000FBF1DAFFDF6E00017D4B54
:1009A8007E2BA3EF04F03DEC04F0426E63EC0EF0F6
:1009B8006000F7F1D9FF6000FBF1DAFFDF6E00019C
:1009C8007D4B7E2B42501200000183890CEF05F00D
:1009D80087EC0EF0080E39EF05F087EC0EF0070EE5
:1009E80039EF05F000017F292CEC0EF0040E39EFE9
:1009F80005F0070E00018119D8B405EF05F007EFDF
:100A080005F009EF05F08AEC0EF00F0E39EF05F04E
:100A18006CC030F06DC031F002D81DEF05F0050054
:100A2800FA6E6051FD6E6151FE6EF850FF6EFA501D
:100A38001200326E336A3350000AD8B426EF05F03C
:100A4800FDEF04F03250010AD8B4FDEF04F0030AB8
:100A5800D8B4F1EF04F0010AD8B4ECEF04F0070AB7
:100A6800D8B4F6EF04F0FDEF04F0120043EC0DF0FB
:100A78000009D8A442EF05F044EF05F047EF05F070
:100A8800040E88EF05F000018351030B0009D8B468
:100A980050EF05F052EF05F05EEF05F0010E306EF5
:100AA8008351030B316E3050315E83513118FC0B8A
:100AB8003118836F7F07D8A080077F518011D8B481
:100AC80068EF05F06AEF05F078EF05F084EC0EF0BA
:100AD8006000F7F1D9FF6000FBF1DAFFDF6E00017B
:100AE8007D4B7E2B44EF05F0E8EC04F0326E84EC8D
:100AF8000EF06000F7F1D9FF6000FBF1DAFFDF6E5E
:100B080000017D4B7E2B3250120039019397A00EC5
:100B18000201FA6F170EFB6FFAEC0DF0000E3D01A3
:100B2800EC6F000EED6F000EEE6F000EEF6F000E13
:100B3800F06F000EF16FB00EF26F800EF36F000EC3
:100B4800F46F080EF56F020EF66F000EF76F000EC9
:100B5800F86F000EF96F000EFA6F000E0201FA6FBF
:100B6800000EFB6F04EC0EF0000E0201FA6F000E8F
:100B7800FB6FFFEC0DF0000E0201FA6F000EFB6F29
:100B880009EC0EF0000E286E000E2B6E000E2A6E79
:100B9800000E296E390193871200D3AED6EF05F007
:100BA800D7EF06F000018389EBEF05F066EC0EF055
:100BB800070E14EF06F000017F291DEC0EF0030E5E
:100BC80014EF06F069EC0EF00A0E14EF06F06CC094
:100BD8003CF06DC03DF002D8FCEF05F00500FA6E60
:100BE8006051FD6E6151FE6EF850FF6EFA501200B2
:100BF8003E6E3F6A3F50000AD8B405EF06F0E6EFB4
:100C080005F03E50010AD8B4E6EF05F0030AD8B45F
:100C1800DAEF05F0060AD8B4DFEF05F0E6EF05F0E5
:100C2800120039019695500E0201FA6F170EFB6FEC
:100C3800E6EC0DF0000E3D01D46F000ED66F000EED
:100C4800D86FB00EDA6F800EDB6F000EDC6F080E07
:100C5800DD6F020EDE6F000EDF6F000EE06F000E1C
:100C6800E16F000EE26F000E0201FA6F000EFB6FDB
:100C7800F0EC0DF0000E0201FA6F000EFB6FEBECCA
:100C88000DF0000E0201FA6F000EFB6FF5EC0DF08F
:100C9800000E246E000E276E000E266E000E256EC6
:100CA80039019685120003018B6F030E0201FD6F57
:100CB80003018B5193EC0BF003018651BFEC0CF050
:100CC800000E03018C6F8BEF06F060001FFED9FF4A
:100CD800600023FEDAFF6F0078FF89F36F0074FF6E
:100CE8008AF38AC389F38A6B8951BFEC0CF06000E0
:100CF8001FFED9FF600023FEDAFFDF50BFEC0CF0C7
:100D0800020E03018727000E8823020E8C278651C6
:100D18008C5DD8A092EF06F094EF06F069EF06F02C
:100D280016EC07F01200D3AE9CEF06F0CDEF07F0FB
:100D380043EC0EF0020E0001826FAFEF06F0B3EC49
:100D48000CF0D6EF06F0BDEC0DF0D6EF06F081EC16
:100D58000CF0D6EF06F06EC03CF06FC03DF020EE10
:100D680062F002D8C2EF06F00500FA6EDE50FD6EA2
:100D7800DE50FE6EF850FF6EFA5012003E6E3F6A6B
:100D88003F50000AD8B4CBEF06F0ABEF06F03E5068
:100D9800020AD8B4A3EF06F0010AD8B4A7EF06F008
:100DA800ABEF06F0120000018389ECEF06F087EC48
:100DB8000EF0070E15EF07F000017F292CEC0EF05E
:100DC800030E15EF07F08AEC0EF00A0E15EF07F088
:100DD8006CC030F06DC031F002D8FDEF06F00500B0
:100DE800FA6E6051FD6E6151FE6EF850FF6EFA505A
:100DF8001200326E336A3350000AD8B406EF07F097
:100E0800E7EF06F03250010AD8B4E7EF06F0030A1C
:100E1800D8B4DBEF06F0060AD8B4E0EF06F0E7EF47
:100E280006F01200000E0301806F000E816F000EA5
:100E3800826F000E836F02C085F301C084F3855171
:100E4800BFEC0CF003018451BFEC0CF044EF07F049
:100E5800010E03018027000E8123822383238351FF
:100E68000DE1A10E805D860E8159010E8259D8A030
:100E780040EF07F042EF07F044EF07F04EEF07F0BE
:100E8800CAEC0CF00009D8B44CEF07F04EEF07F0AD
:100E98002CEF07F03BEC0EF0BD98016802681200D9
:100EA80008EC0CF0C598BD98C2983A014099C29ACE
:100EB800409BC3985099C39A509BC2864097C3865B
:100EC8005097D28E2AEC0CF0BD983901E5513F0BB2
:100ED8008009E56FBD98BA98BA9A1A0E03018E6F09
:100EE8005E0E8D6F6E0EE82EFED78D2FFCD78E2FDF
:100EF800FAD700F0BA88BA8A0400BD98440EDDEC2F
:100F080008F0440E06EC0AF03901E5513F0B800960
:100F1800E56F80EF07F00EEF00F0D3AE96EF07F025
:100F280008EF08F0FC0E00018317020E826F83950C
:100F3800A5EF07F0B6EC0DF0CCEF07F00F0ECCEFF5
:100F480007F070C03CF071C03DF020EE64F002D8AC
:100F5800B8EF07F00500FA6EDE50FD6EDE50FE6E4B
:100F6800F850FF6EFA5012003E6E3F6A3F50000A7A
:100F7800D8B4C1EF07F0A2EF07F03E50020AD8B488
:100F88009EEF07F0010AD8B49EEF07F0A2EF07F032
:100F9800120053EC0EF0020E0001826FE0EF07F032
:100FA800D9EC0DF007EF08F098EC0EF007EF08F019
:100FB800AEEC0DF007EF08F06EC030F06FC031F006
:100FC80020EE62F002D8F3EF07F00500FA6EDE506B
:100FD800FD6EDE50FE6EF850FF6EFA501200326E53
:100FE800336A3350000AD8B4FCEF07F0DCEF07F09F
:100FF8003250020AD8B4D4EF07F0010AD8B4D8EFB7
:1010080007F0DCEF07F01200FC0E00018317020E58
:10101800826F839517EF08F096EC0EF03EEF08F01C
:101028000F0E3EEF08F070C030F071C031F020EEC6
:1010380064F002D82AEF08F00500FA6EDE50FD6E63
:10104800DE50FE6EF850FF6EFA501200326E336AB0
:101058003350000AD8B433EF08F014EF08F03250D8
:10106800020AD8B410EF08F0010AD8B410EF08F05B
:1010780014EF08F012008EEC09F000018351030B05
:101088000009D8B44AEF08F04CEF08F059EF08F01F
:10109800EBEC0CF00009D8B454EF08F056EF08F068
:1010A80059EF08F0100E0001816F00018151020D07
:1010B800BF0EF324F66E7F0EF420F76E02D871EFA0
:1010C80008F00500FA6E0900F550FD6E0900F550AC
:1010D800FE6EF850FF6EFA5012000001816F120088
:1010E800B7EC09F000018351030B0009D8B47FEF76
:1010F80008F081EF08F08EEF08F038EC0DF00009E9
:10110800D8B489EF08F08BEF08F08EEF08F0100ED6
:101118000001816F00018151020DBF0EF324F66EAC
:101128007F0EF420F76E02D8A6EF08F00500FA6EDD
:101138000900F550FD6E0900F550FE6EF850FF6E7F
:10114800FA5012000001816F1200020E0001FA1914
:10115800D8A4B1EF08F0B3EF08F0CFEF08F0FB51D7
:10116800D8A4B9EF08F0BBEF08F0CFEF08F00150B2
:101178000210D8A4C2EF08F0C4EF08F0CFEF08F0CF
:101188006100FFF7E8FFFE0F6F00A0FFFFF5010EFB
:10119800FB6FD1EF08F0000EFB6F000E156E0168B3
:1011A8000268000EFA6F000E4AEC0CF03BEC0EF0F1
:1011B80012000201FA6FBD88000E0201FC6F000EDA
:1011C800FB6FEBEF08F004000201FB4BFC2B39012D
:1011D800A3B9F1EF08F0F3EF08F0FFEF08F0100EF5
:1011E8000201FB5D270EFC59D8A0FDEF08F0FFEFC8
:1011F80008F0E7EF08F06000EBFBEAFDCAEC0CF042
:101208000009D8B40AEF09F00CEF09F002EF09F071
:10121800BD9812000301896F020E0201FD6F0301E0
:10122800895193EC0BF003018651BFEC0CF0000ED2
:1012380003018A6F2DEF09F060001FFED9FF6000DF
:1012480023FEDAFFDF50BFEC0CF00301874B882B3D
:101258008A2B86518A5DD8A034EF09F036EF09F061
:1012680020EF09F016EC07F012000301896F010E58
:101278000201FD6F0301895193EC0BF003018651C4
:10128800BFEC0CF0000E03018A6F58EF09F0600004
:101298001FFED9FF600023FEDAFFDF50BFEC0CF021
:1012A8000301874B882B8A2B86518A5DD8A05FEF74
:1012B80009F061EF09F04BEF09F016EC07F01200A6
:1012C800034A042ABA7A640E03180410D8A46FEFEC
:1012D80009F071EF09F076EF09F0000E046E000EC8
:1012E800036EBA780001F451F511D8B47EEF09F015
:1012F80080EF09F08DEF09F002D88DEF09F00500B5
:10130800FA6EF451FD6EF551FE6EF850FF6EFA500C
:101318001200120017EC0DF00009D8B496EF09F08E
:1013280098EF09F09CEF09F072EC0EF0B6EF09F0B7
:1013380001EC0DF00009D8B4A4EF09F0A6EF09F00C
:10134800AAEF09F06CEC0EF0B6EF09F00CEC0DF01A
:101358000009D8B4B2EF09F0B4EF09F0B6EF09F01C
:101368006FEC0EF0120064EC0DF00009D8B4BFEF7A
:1013780009F0C1EF09F0C5EF09F093EC0EF0DFEFCB
:1013880009F04EEC0DF00009D8B4CDEF09F0CFEF1D
:1013980009F0D3EF09F08DEC0EF0DFEF09F059EC0E
:1013A8000DF00009D8B4DBEF09F0DDEF09F0DFEF4D
:1013B80009F090EC0EF012002BEC0AF00001FB5142
:1013C800D8A4E9EF09F0EBEF09F0EEEF09F0000E11
:1013D80005EF0AF021EE00F2DFAEF5EF09F0F7EFC6
:1013E80009F0FEEF09F0610008F801F6010E6F0040
:1013F800A0FFFFF5000EFB6F010E4B6E000E216E75
:10140800010E12000201FA6F000E0201FC6F000EBD
:10141800FB6F13EF0AF004000201FB4BFC2B3901B0
:10142800A6B719EF0AF01BEF0AF027EF0AF0100E23
:101438000201FB5D270EFC59D8A025EF0AF027EF23
:101448000AF00FEF0AF06000EBFBD2FD1200070470
:10145800D8A431EF0AF033EF0AF04CEF0AF01C5031
:10146800D8B439EF0AF03BEF0AF04CEF0AF0045019
:1014780009E10A0E035CD8A044EF0AF046EF0AF02F
:101488004CEF0AF0000E076EA9EC08F0000E156E7E
:101498001200400EB96E3C0EB76EB00EB66EB65066
:1014A8006F00DCFEFCF20201FD6BFCC2FDF2FC6B7E
:1014B800FC11496EFD514A6E3901A39F938F420E6C
:1014C8000201FA6F1D0EFB6F0EEC0EF0900EB86E57
:1014D80012000301846F000E0301806FFF0E816FFD
:1014E8008451836F826B8051821781518317020167
:1014F800FA5103018225856F0201000E0301832141
:10150800866F85C3FAF286C3FBF2120003018B6F64
:10151800060E0201FD6F03018B5193EC0BF00301E2
:101528008851BFEC0CF003018751BFEC0CF00301AC
:101538008A51BFEC0CF003018951BFEC0CF016EC9A
:1015480007F0120003018B6F050E0201FD6F030106
:101558008B5193EC0BF003018851BFEC0CF00301A5
:101568008751BFEC0CF003018A51BFEC0CF003016A
:101578008951BFEC0CF016EC07F0120003018B6FD9
:10158800100E0201FD6F03018B5193EC0BF0030168
:101598008851BFEC0CF003018751BFEC0CF003013C
:1015A8008A51BFEC0CF003018951BFEC0CF016EC2A
:1015B80007F0120003018B6F0F0E0201FD6F03018C
:1015C8008B5193EC0BF003018851BFEC0CF0030135
:1015D8008751BFEC0CF003018A51BFEC0CF00301FA
:1015E8008951BFEC0CF016EC07F01200D3AEFFEFF8
:1015F8000AF07CEF0BF000018351FC0B0209836FAA
:101608007F058011D8A40BEF0BF00DEF0BF00FEF57
:101618000BF03DEC04F0D88000017C3518EC0EF09E
:10162800040E12000201FA6F02500201FA19FB6F50
:10163800BF0EFB25F66EF76A7E0EF7220800F550FE
:101648000118026EBF0EFB25F66EF76A7D0EF722B3
:1016580008006F00D4FF01F012003C6E02503C18E5
:101668003D6EBF0E3D24F66EF76A7E0EF722080027
:10167800F5500118026EBF0E3D24F66EF76A7D0E16
:10168800F72208006F00D4FF01F01200D3AE4FEF2D
:101698000BF0BCEF0BF05AEC0EF057EC0EF0000913
:1016A800D8B459EF0BF05BEF0BF061EF0BF0000EC5
:1016B8001DEC0EF0000E18EC0EF0000E1200306E4D
:1016C80002503018316EBF0E3124F66EF76A7E0E66
:1016D800F7220800F5500118026EBF0E3124F66E8D
:1016E800F76A7D0EF72208006F00D4FF01F01200A0
:1016F80000018351FC0B0209836F7F058011D8A478
:1017080088EF0BF08AEF0BF08CEF0BF0E8EC04F0AD
:10171800D88000017C3527EC0EF0040E120003017E
:10172800806F01680268000E0001FB6F3FEC0EF04D
:10173800BD88000E196E03018051BFEC0CF0020148
:10174800FD51BFEC0CF012003D01E1A7AEEF0BF02C
:10175800B0EF0BF0B1EF0BF0E197E1A3B6EF0BF0B0
:10176800B8EF0BF0B9EF0BF0E19313EC0EF01200A9
:101778007BEC0EF078EC0EF00009D8B4C6EF0BF055
:10178800C8EF0BF0CEEF0BF0000E2CEC0EF0000EB5
:1017980027EC0EF0000E12003D01F9A7D6EF0BF072
:1017A800D8EF0BF0D9EF0BF0F997F9A3DEEF0BF0B8
:1017B800E0EF0BF0E1EF0BF0F99336EC0EF01200CE
:1017C8000301896F0301865180090201FD6F03013E
:1017D800895193EC0BF003018851BFEC0CF016EC27
:1017E80007F01200000E3901C06F000EC16F000E25
:1017F800C26F000EC36F000EC46F000EC56F000EDF
:10180800C66F000EC76F12006FEC0DF0F6EC0BF010
:10181800E2EC03F09BEC0CF04DEC0AF015EC06F052
:1018280089EC05F019EC0CF01200040E3D015D6F17
:10183800800E5E6F210E5F6F030E656F000E636F83
:10184800000E646F000E606F566912003BEC0EF0DC
:10185800BD98000E0001FB6F000EFA6F0168026868
:101868003901A3979387A69596851200D3AE3FEFCB
:101878000CF022EF0DF000018351FC0B0209836F7D
:101888007C517C2518EC0EF0030E12000001FF6F4E
:101898000001FF51D8A453EF0CF056EF0CF0010EE5
:1018A80057EF0CF0000E1C6E120031000000000013
:1018B80000000000000000000000C10009FFFF0058
:1018C8006200170300003C6E3C50D8A46EEF0CF089
:1018D80071EF0CF0010E72EF0CF0000E1C6E12008E
:1018E800D3AE79EF0CF0A6EF0DF022EC0EF000016C
:1018F8008395020E826F0F0E1200D3AE86EF0CF0A6
:10190800AEEF0DF022EC0EF000018395000E826F11
:101918000F0E1200306E3050D8A495EF0CF098EFEF
:101928000CF0010E99EF0CF0000E1C6E1200700EF8
:101938003901D96F000EDB6F000EDD6F020EDF6F0D
:10194800000EDE6F1200D3AEACEF0CF0D2EF0DF04C
:101958005DEC0EF05AEC0EF0D5EC0CF01200D3AEA4
:10196800B8EF0CF0D9EF0DF000017F511DEC0EF02F
:10197800FAEC0AF012000001FF6F0001FF51DDECE4
:1019880008F00001FF5116EC0BF012003D01F9BF01
:10199800D0EF0CF0D3EF0CF0010ED4EF0CF0000EEA
:1019A8001200D3AEDAEF0CF0E0EF0DF000018395F2
:1019B800000E826F0F0E12003D0162BBE6EF0CF0C5
:1019C800E9EF0CF0010EEAEF0CF0000E12003D01F9
:1019D8005EBBF1EF0CF0F4EF0CF0010EF5EF0CF03C
:1019E800000E12003D0162B1FCEF0CF0FFEF0CF0AD
:1019F800010E00EF0DF0000E12003D0163B507EF78
:101A08000DF00AEF0DF0010E0BEF0DF0000E1200B5
:101A18003D0160B912EF0DF015EF0DF0010E16EF54
:101A28000DF0000E12003D0163BF1DEF0DF020EF19
:101A38000DF0010E21EF0DF0000E12000001835190
:101A4800FC0B0209836F7C517C2527EC0EF0030EFA
:101A580012003D0162BB33EF0DF036EF0DF0010EC1
:101A680037EF0DF0000E12003D015EBB3EEF0DF0AA
:101A780041EF0DF0010E42EF0DF0000E12003D0196
:101A880062B149EF0DF04CEF0DF0010E4DEF0DF086
:101A9800000E12003D0163B554EF0DF057EF0DF045
:101AA800010E58EF0DF0000E12003D0160B95FEF16
:101AB8000DF062EF0DF0010E63EF0DF0000E120055
:101AC8003D0163BF6AEF0DF06DEF0DF0010E6EEF93
:101AD8000DF0000E1200D28A390183878695839F04
:101AE8008385828F8383838112003901A39F4A50A3
:101AF800B76E600027F1B6FF64EC09F01200D3AEB0
:101B080088EF0DF047EF0EF05DEC0EF0090E1200B5
:101B1800D3AE91EF0DF04BEF0EF060EC0EF0040E2B
:101B28001200D3AE9AEF0DF04FEF0EF060EC0EF00E
:101B3800030E1200D3AEA3EF0DF075EF0EF03FECDD
:101B480008F0120031EC0EF000018395020E826F4E
:101B58000F0E120031EC0EF000018395000E826F1B
:101B68000F0E1200D3AEBBEF0DF096EF0EF0010E84
:101B78001200D3AEC2EF0DF098EF0EF0020E120075
:101B8800D3AEC9EF0DF09AEF0EF0050E1200D3AEEA
:101B9800D0EF0DF09CEF0EF0010E12007EEC0EF06F
:101BA8007BEC0EF0E0EC0DF0120000017F512CEC04
:101BB8000EF07CEC0BF0120000018395000E826F92
:101BC8000F0E1200FAC2F8F0FBC2F9F01200FAC2C6
:101BD800F8F1FBC2F9F11200FAC2FAF1FBC2FBF10B
:101BE8001200FAC2FEF2FBC2FFF21200FAC2F6F0CD
:101BF800FBC2F7F01200FAC2FEF1FBC2FFF11200BD
:101C0800FAC2F2F0FBC2F3F01200FAC2FCF1FBC216
:101C1800FDF11200FAC2F4F0FBC2F5F012002BEC51
:101C280002F03901A69512003C6E6000F3F055FDF4
:101C380012003C6E6000F3F056FD12003D015D9FFE
:101C480062855D8F1200306E6000C3F055FD120092
:101C5800306E6000C3F056FD12003D015D9F628545
:101C68005D8F1200B7EC01F03901A397120039011A
:101C7800A39B9387120039019397A3971200000E34
:101C88003D01636F12007EEC0EF0090E120081EC2C
:101C98000EF0040E120081EC0EF0030E1200000E7E
:101CA8003D01636F12003D01565112003D015D9BDD
:101CB80012003D015E8D12003D015E9D12003D0146
:101CC800545112003D015D8D12003D015D9D1200D1
:101CD8003D01639512003D01609912003D01639F2B
:101CE800120074EC08F012003D01565112003D013B
:101CF8005D9B12003D015E8D12003D015E9D12004C
:101D08003D01545112003D015D8D12003D015D9D64
:101D180012003D01639512003D01609912003D01DA
:101D2800639F1200010E1200020E1200050E12002F
:071D3800010E12000201037D
:051D4000120012000179
:107DBE000000C0C101C30302C2C60607C705C5C481
:107DCE0004CC0C0DCD0FCFCE0E0ACACB0BC90908B1
:107DDE00C8D81819D91BDBDA1A1EDEDF1FDD1D1CF1
:107DEE00DC14D4D515D71716D6D21213D311D1D081
:107DFE0010F03031F133F3F23236F6F737F5353421
:107E0E00F43CFCFD3DFF3F3EFEFA3A3BFB39F9F8F0
:107E1E003828E8E929EB2B2AEAEE2E2FEF2DEDEC90
:107E2E002CE42425E527E7E62622E2E323E12120C0
:107E3E00E0A06061A163A3A26266A6A767A56564C0
:107E4E00A46CACAD6DAF6F6EAEAA6A6BAB69A9A830
:107E5E006878B8B979BB7B7ABABE7E7FBF7DBDBC70
:107E6E007CB47475B577B7B67672B2B373B1717000
:107E7E00B050909151935352929656579755959460
:107E8E00549C5C5D9D5F9F9E5E5A9A9B5B99595870
:107E9E0098884849894B8B8A4A4E8E8F4F8D4D4C10
:107EAE008C44848545874746868242438341818040
:107EBE004000C1814001C0804101C0804100C181AC
:107ECE004001C0804100C1814000C1814001C0809D
:107EDE004101C0804100C1814000C1814001C0808C
:107EEE004100C1814001C0804101C0804100C1817B
:107EFE004001C0804100C1814000C1814001C0806D
:107F0E004100C1814001C0804101C0804100C1815A
:107F1E004000C1814001C0804101C0804100C1814B
:107F2E004001C0804100C1814000C1814001C0803C
:107F3E004101C0804100C1814000C1814001C0802B
:107F4E004100C1814001C0804101C0804100C1811A
:107F5E004000C1814001C0804101C0804100C1810B
:107F6E004001C0804100C1814000C1814001C080FC
:107F7E004100C1814001C0804101C0804100C181EA
:107F8E004001C0804100C1814000C1814001C080DC
:107F9E004101C0804100C1814000C1814001C080CB
:107FAE004100C1814001C0804101C0804100C181BA
:107FBE0040AA19F415741820002809A20B7A086635
:107FCE00197A1B6C1B9416181B2A1B4E19061B02C2
:107FDE0019220F2E0DE818010000000D0A20206254
:107FEE007265616B000D0A20207265616400257355
:027FFE00000081
:020000040020DA
:10000000FF0FFF0FFF0FFF0FFF0FFF0FFF0FFF0F80
:020000040030CA
:0A000000FAFFF7FF89D0FFFFFFFFB2
:00000001FF
