:020000040000fa
:080000000001040000000000f3
:020000040000fa
:0400080020020000d2
:020000040000fa
:04000c00620200008c
:020000040000fa
:04001000a202000048
:020000040000fa
:0400140040020000a6
:020000040000fa
:040018008202000060
:020000040000fa
:04001c00a804000034
:020000040000fa
:04002000a804000030
:020000040000fa
:04002400a80400002c
:020000040000fa
:04002800a804000028
:020000040000fa
:04002c00a804000024
:020000040000fa
:04003000a804000020
:020000040000fa
:040034009a0300002b
:020000040000fa
:04003800a804000018
:020000040000fa
:04003c00a804000014
:020000040000fa
:04004000a804000010
:020000040000fa
:04004400a80400000c
:020000040000fa
:04004800a804000008
:020000040000fa
:04004c00a804000004
:020000040000fa
:04005000a804000000
:020000040000fa
:040054002c04000078
:020000040000fa
:04005800d0030000d1
:020000040000fa
:04005c00a8040000f4
:020000040000fa
:04006000a8040000f0
:020000040000fa
:04006400a8040000ec
:020000040000fa
:04006800a8040000e8
:020000040000fa
:04006c00a8040000e4
:020000040000fa
:04007000a8040000e0
:020000040000fa
:04007400a8040000dc
:020000040000fa
:04007800a8040000d8
:020000040000fa
:04007c00a8040000d4
:020000040000fa
:04008000a8040000d0
:020000040000fa
:04008400a8040000cc
:020000040000fa
:04008800a8040000c8
:020000040000fa
:04008c00a8040000c4
:020000040000fa
:04009000a8040000c0
:020000040000fa
:04009400a8040000bc
:020000040000fa
:04009800a8040000b8
:020000040000fa
:04009c00a8040000b4
:020000040000fa
:0400a0001e0300003b
:020000040000fa
:0400a400c202000094
:020000040000fa
:0400a800a8040000a8
:020000040000fa
:0400ac00a8040000a4
:020000040000fa
:0400b000a8040000a0
:020000040000fa
:0400b400a80400009c
:020000040000fa
:0400b800a804000098
:020000040000fa
:0400bc00a804000094
:020000040000fa
:0400c000a804000090
:020000040000fa
:0400c400a80400008c
:020000040000fa
:0400c800a804000088
:020000040000fa
:0400cc00a804000084
:020000040000fa
:0400d000a804000080
:020000040000fa
:0400d400a80400007c
:020000040000fa
:0400d800a804000078
:020000040000fa
:0400dc00a804000074
:020000040000fa
:0400e000a804000070
:020000040000fa
:0400e400a80400006c
:020000040000fa
:0400e800a804000068
:020000040000fa
:0400ec00a804000064
:020000040000fa
:0400f000a804000060
:020000040000fa
:0400f400a80400005c
:020000040000fa
:0400f800a804000058
:020000040000fa
:0400fc00a804000054
:020000040000fa
:04010000a80400004f
:020000040000fa
:04010400a80400004b
:020000040000fa
:04010800a804000047
:020000040000fa
:04010c00a804000043
:020000040000fa
:04011000a80400003f
:020000040000fa
:04011400a80400003b
:020000040000fa
:04011800a804000037
:020000040000fa
:04011c00a804000033
:020000040000fa
:04012000a80400002f
:020000040000fa
:04012400a80400002b
:020000040000fa
:04012800a804000027
:020000040000fa
:04012c009204000039
:020000040000fa
:040130008403000044
:020000040000fa
:04013400a80400001b
:020000040000fa
:04013800a804000017
:020000040000fa
:04013c00a804000013
:020000040000fa
:04014000a80400000f
:020000040000fa
:04014400a80400000b
:020000040000fa
:04014800a804000007
:020000040000fa
:04014c00a804000003
:020000040000fa
:04015000a8040000ff
:020000040000fa
:04015400a8040000fb
:020000040000fa
:04015800a8040000f7
:020000040000fa
:04015c00a8040000f3
:020000040000fa
:04016000a8040000ef
:020000040000fa
:04016400a8040000eb
:020000040000fa
:04016800a8040000e7
:020000040000fa
:04016c00a8040000e3
:020000040000fa
:04017000a8040000df
:020000040000fa
:04017400a8040000db
:020000040000fa
:04017800a8040000d7
:020000040000fa
:04017c00a8040000d3
:020000040000fa
:04018000a8040000cf
:020000040000fa
:04018400a8040000cb
:020000040000fa
:04018800a8040000c7
:020000040000fa
:04018c00a8040000c3
:020000040000fa
:04019000a8040000bf
:020000040000fa
:04019400a8040000bb
:020000040000fa
:04019800a8040000b7
:020000040000fa
:04019c00a8040000b3
:020000040000fa
:0401a000a8040000af
:020000040000fa
:0401a400a8040000ab
:020000040000fa
:0401a800a8040000a7
:020000040000fa
:0401ac00a8040000a3
:020000040000fa
:0401b000a80400009f
:020000040000fa
:0401b400a80400009b
:020000040000fa
:0401b800a804000097
:020000040000fa
:0401bc00a804000093
:020000040000fa
:0401c000a80400008f
:020000040000fa
:0401c400a80400008b
:020000040000fa
:0401c800a804000087
:020000040000fa
:0401cc00a804000083
:020000040000fa
:0401d000a80400007f
:020000040000fa
:0401d400a80400007b
:020000040000fa
:0401d800a804000077
:020000040000fa
:0401dc00a804000073
:020000040000fa
:0401e000a80400006f
:020000040000fa
:0401e400a80400006b
:020000040000fa
:0401e800a804000067
:020000040000fa
:0401ec00a804000063
:020000040000fa
:0401f000a80400005f
:020000040000fa
:0401f400a80400005b
:020000040000fa
:0401f800a804000057
:020000040000fa
:0401fc00a804000053
:020000040000fa
:10020000af9620000e7f24000e0188000000000041
:10021000000020000000e000020032000001200089
:100220002002880014000700400207000000e000e0
:1002300003003a00001621000100200002003700f0
:100240000000200001002000810f7000010032003a
:1002500014000700000020000000e000020032004f
:100260000000020000000000301202000000000048
:100270000040da000000fe004440a9008000200099
:100280000000e00003003200002020009001880000
:100290004440a800000006008a1f78008b1f7800e9
:1002a00000000600a1028800800478000000eb0036
:1002b0001f003700e284440054a0b4009905ba003e
:1002c000e284440054a0b4009906ba00e2844400d9
:1002d00054a0b4000006eb00476fde00fd07b2003b
:1002e000ae018800636ce10003003a00eaff0700fa
:1002f0000000eb000e003700606ce10008003a00df
:10030000004deb000a05e800020039003420ec0043
:100310000af0a0008b05e900f9ff3e000400370059
:100320006168e100010032000086eb000b0007006d
:1003300019c7ba001905ba000e04e00003003a001c
:100340000a00e000dbff3a0000000600fe07b200f2
:10035000ae0288008a047800f5ff37000cd0a300b5
:10036000e20f4d001c00390089027800354dba00bb
:100370000a05e800020039003420ec000af0a00071
:100380008b05e9000f003200254dba000a05e80090
:10039000020039003420ec000af0a0008b05e900cf
:1003a000080032000c00e0000600320015cdba0053
:1003b0000a05e800020039003420ec000af0a00031
:1003c0008b05e9008984e80054a0b4000b00e0002c
:1003d000e2ff3a00000006009902ba00055d7800cd
:1003e0008b05e900f7ff3200c82ade00055d7800c2
:1003f0008b05e900f3ff32000c00e000f1ff320052
:1004000019ddba00eeff37003c0a040000000000ce
:100410005a0a040000000000e01004000000000080
:10042000a60d040000000000c40d04000000000040
:100430006408040000000000000004000000000048
:100440003600f800809fbe00829fbe00849fbe00e1
:10045000869fbe000000fa008020a9000000eb008b
:10046000df0807000080fa004f03be004f02be0005
:100470004f01be004f00be003600f90000400600ec
:100480003600f800809fbe00829fbe00849fbe00a1
:10049000869fbe000000fa00d60807008040a90031
:1004a00010002000ce0807000080fa004f03be00b5
:1004b0004f02be004f01be004f00be003600f900e3
:1004c000004006003600f800809fbe00829fbe00fc
:1004d000849fbe00869fbe000000fa008060a900d5
:1004e00020002000be0807000080fa004f03be0075
:1004f0004f02be004f01be004f00be003600f900a3
:10050000004006003600f800809fbe00829fbe00bb
:10051000849fbe00869fbe000000fa008080a90074
:1005200030002000ae0807000080fa004f03be0034
:100530004f02be004f01be004f00be003600f90062
:10054000004006003600f800809fbe00829fbe007b
:10055000849fbe00869fbe000000fa008600a900ae
:10056000700020009e0807000080fa004f03be00c4
:100570004f02be004f01be004f00be003600f90022
:10058000004006003600f800809fbe00829fbe003b
:10059000849fbe00869fbe000000fa00504080008d
:1005a000000001003140800020408000808f50001a
:1005b00002003a009be0a900190037008be0a90077
:1005c0001000370030408000904078008180fb00b0
:1005d000911d88000000e800304088003140800014
:1005e00090932000808f500002003a00009320007a
:1005f000304088003140800020408000808f5000d3
:1006000006003200811d8000002020000080600074
:100610000000e000ebff32000100370000000000a6
:100620000080fa004f03be004f02be004f01be0023
:100630004f00be003600f900004006003600f8000a
:10064000809fbe00829fbe00849fbe00869fbe002a
:100650000000fa0060408000000001008bc0a9008b
:100660001e00370000408000a11d800081407800fe
:10067000014878000140800010942000808f5000d5
:1006800009003200004080008000e8001040800037
:10069000808f500004003200004080000000e8001d
:1006a000004088000d0037000140800010942000b9
:1006b000808f500007003a00114080009093200086
:1006c000808f50000300320090932000004088008b
:1006d0000200370010c0b30008e8b700801d80009a
:1006e000610060000000e000deff3a000080fa00d8
:1006f0004f03be004f02be004f01be004f00be00c0
:100700003600f90000400600801f78000000fa0063
:10071000801d8000620060000000e00001003200e7
:10072000b023a9009040a9000080fa004f00780093
:10073000004006003600f800809fbe00829fbe0089
:10074000849fbe00869fbe000000fa00104180001a
:100750000000e000020032001041800000000100b3
:1007600010962000104078008040e800109620008d
:10077000014878000096200011c0b30001487800bd
:100780008860a9000080fa004f03be004f02be003f
:100790004f01be004f00be003600f90000400600c9
:1007a0003600f800809fbe00829fbe00849fbe007e
:1007b000869fbe000000fa00c040800000000100db
:1007c000a140800090408000808f500002003a00dd
:1007d0009980a900190037008980a900100037000e
:1007e000a0408000904078008180fb00e11c8800e0
:1007f0000000e800a0408800a1408000b0942000e4
:10080000808f500002003a0020942000a040880011
:10081000a140800090408000808f50000600320090
:10082000d11c800000202000008060000000e0005b
:10083000ebff320001003700000000000080fa00ea
:100840004f03be004f02be004f01be004f00be006e
:100850003600f900004006003600f800809fbe0018
:10086000829fbe00849fbe00869fbe000000fa00eb
:10087000d0408000000001008960a9001e00370000
:1008800070408000f11c80008140780001487800b1
:100890007140800030952000808f500009003200a8
:1008a000704080008000e80080408000808f500011
:1008b00004003200704080000000e80070408800b2
:1008c0000d0037007140800030952000808f50006f
:1008d00007003a0081408000b0942000808f5000d3
:1008e00003003200b09420007040880002003700fe
:1008f00010c0b30016e8b700d01c80006100600093
:100900000000e000deff3a000080fa004f03be0066
:100910004f02be004f01be004f00be003600f9007e
:1009200000400600801f78000000fa00d01c800004
:10093000620060000000e000010032009a23a9007c
:100940009020a9000080fa004f00780000400600c7
:100950000040da000000fe000a00fa00110020004a
:10096000b1bf9f00c0bf9f006a8057008b02070085
:100970004fb897000080fa00000006000a00fa0055
:10098000e20f500034003e00304b8000e10f500079
:1009900003003200e20f500011003a000c00370053
:1009a000833920000300e00001003a000040da0033
:1009b0009803e20002003500a023ef0099e3a800ad
:1009c0009b43ab000d003a009b43a8000b0037008f
:1009d000e33a20000300e00001003a000040da00a2
:1009e000ae03e20002003500b623ef00afe3a8003b
:1009f000b143ab0001003a00b143a8008201780086
:100a00000b0037003102fb00e10f500004003a00f8
:100a10009b23ab00feff3a00e41c88000300370074
:100a2000b123ab00feff3a00941d88008301e9006a
:100a30000300e000f3ff3a00e10f500003003a002a
:100a40009b03ab00feff32000b003700b103ab008d
:100a5000feff32000800370033002000b3bf9f00c4
:100a6000c0bf9f00d1bf9f00e2bf9f006a805700b8
:100a70004c0207006fb99700020078000080fa006e
:100a8000000006000a00fa0051002000b1bf9f00dc
:100a9000c0bf9f006a805700440207005fb89700fc
:100aa0000080fa0000000600889fbe0080047800e5
:100ab000404b80000000e00004003a000e000700f8
:100ac0000084eb000000e00008003500484b800087
:100ad0000900e0000500320009004400060007009c
:100ae0000000e00001003d000084eb0008007800f9
:100af0004f04be0000000600800078000100e00006
:100b000003003a0000002000404b88000000050070
:100b10000080eb0002002000828f500002003e00a7
:100b2000414b88000000eb000000060000000500bb
:100b3000c18420006b000700800078000080eb007b
:100b40000100e00004003500c1842000a000200066
:100b5000020007004f80de0000000600889fbe00f4
:100b60008a1f78000004be00c90090006900900050
:100b7000808f50000600390009007800b800070097
:100b8000800078000080eb000100e00017003500d5
:100b9000084578004900900008587800c004980083
:100ba0001900780000b8a30004003a0000a8a300d0
:100bb00008003200ea4f540006003a0009007800ad
:100bc0000d000700800078000080eb000100e000cd
:100bd00006003a0000c02000190060000200320048
:100be00049009000e00498000a80fb004f0578005f
:100bf0004f04be0000000600889fbe008a1f7800d8
:100c0000000478000800e0000d003a00a8892000e8
:100c1000700544008004eb00580078000000e000fc
:100c200004003200f4ff07000000e00001003d0076
:100c30008084eb008a0f5400f7ff3a00250037004c
:100c400000002200180060008004eb002100320048
:100c5000a80490000f0037000901510038409000af
:100c60000000fb008900780044ff07000000e0005e
:100c700007003c00280090004004980060049800a1
:100c8000500c98001890a0008084eb0011003700f1
:100c90008084440048019000828f5400eeff3900a8
:100ca00028009000400498009800780002c02000be
:100cb0000281600001003a003800900001e8a300c2
:100cc000020032006004980001003700500c9800c8
:100cd0008004eb00090078004f0578004f04be0047
:100ce00000000600889fbe008a9fbe008004780036
:100cf000010478002c003700c800900068009000c4
:100d0000808f50000400390008007800540007006c
:100d10000000e000370035000040200018006000af
:100d200009003200a10020000900780042000700fd
:100d3000800578000b00e00003003200618514009c
:100d40000a854500040037000900780034000700d8
:100d5000000578008005eb0048009000e800900056
:100d6000808050008a8f5000020031000105780019
:100d70008005eb000a017800890078002100070057
:100d8000480090000a004000400498000b00e0007a
:100d9000040032000800780097ff07000000e00020
:100da00014003a008a8444001904e000d2ff3a009b
:100db0000080200018006000060032000800780063
:100dc0008dff0700800078000080eb000100e0004c
:100dd00009003a0001c02000988060000000eb008c
:100de0000500320048009000600498000000eb000d
:100df000010037000080eb004f05be004f04be002d
:100e0000000006008001780002003700b159780028
:100e10000201e9000200e000fcff3a0000000600c9
:100e200080007800010178003104e000fdff3a0005
:100e300000005100000006000001eb0000027800f5
:100e4000b041780081cf510001003a0004017800e0
:100e50000304e000f9ff3a000200780000000600f9
:100e6000889fbe008a1f780000047800c8009000a8
:100e7000680190000000eb00828f50003c003900b8
:100e8000180078002200290002016000e20f5100e2
:100e900007003200012020000000e00001003500c2
:100ea00001202400008c70000080eb00300037002f
:100eb0000200260002006000820f500009003a0084
:100ec00038009000808f500006003900080078003c
:100ed00049ff0700800078000080eb000100e0007f
:100ee00023003a001805780000c0200000006500cb
:100ef00018003a00a804900060022000080040009a
:100f0000808f540013003a0000202000ef000700fb
:100f1000200498000000e00005003a002904980031
:100f2000490498008904e800390498000800370053
:100f30000a60a0000a0c78004004980001202000fc
:100f40008080400031049800400c9800500c9800bc
:100f50000c00070028009000500498003800900012
:100f60006004980000002600180c70000000eb00e0
:100f70004f0578004f04be000000060040862000a8
:100f800061003700881f7800289620001804e000d0
:100f900003003a00f9ff070020c0b300004c7800be
:100fa0004f04780000000600889fbe00000478000f
:100fb0000800780010ff070080047800000420007b
:100fc0001800600002003200280090005a0007005c
:100fd0000000eb0020049800384090000004e0007e
:100fe000050035000000fb005bfe07000000e0008c
:100ff000010032008084eb00181090000000e00037
:10100000080032009ffe07000000e00001003200ef
:101010008084eb0018109000470007000000eb00f0
:10102000101498000008200018006000150032001d
:101030000001eb006000b800c38920000202d0006c
:1010400063027a00880f520005003a000000400059
:1010500081804800008041000008eb000600370056
:1010600061004000e08048000201e800e80f500005
:10107000e08f5800f0ff3a00080078002e000700cb
:101080000e003700000c780000c0eb0030449800e0
:1010900060022000080040002004980040049800ee
:1010a00050049800400c980060049800500c980080
:1010b0007004980076004400000c98000900780045
:1010c0004f04be0000000600881f78000004eb00fb
:1010d0006140b800e2ff2f00f3ff2f00b5000700ca
:1010e000a28a2000620078000000e00001003200c7
:1010f000adff07000804e800e80f5400f4ff3a00d1
:101100004f04780000000600010020000100e0000c
:1011100008003200010080000100e00005003200fc
:101120008100e900010088008100d00002008000f9
:1011300000b17800000006000000e0002f0032003f
:10114000c0017800e38f51002c0036000308a30093
:101150002a003a00f14a80000100e000020032005b
:10116000810f50000400310011009800f04a8800ff
:101170001600370082007800110190000200e000a4
:1011800002003200800f5100faff3900110278008e
:1011900084824000850f500018003900808f520073
:1011a00003003a008308420001007800070037007e
:1011b0000200e0000300320083014000830f510071
:1011c0000e003900120098009000980090009000e6
:1011d0000100e0000900320010014000828f500041
:1011e00006003a00c29520000009eb0010017800cb
:1011f00011084100910090001100980000000600c5
:10120000889fbe0000047800e14a80000100e000f1
:1012100002003200010078000d003700f14a800022
:10122000e095200004003700910f5400250036009f
:101230000180e800910090000100e000faff3a0010
:1012400010003700920f54001e0036000280e800a4
:10125000100178000200e000faff3a001101780066
:10126000f14a8000e095200004003700910f5400ff
:10127000140036000180e80091009000828f500039
:10128000faff3a00294b8000888f5400010031009a
:101290008804780009007800360007000000e000ac
:1012a00004003a00888f5400050032008904d10000
:1012b000f5ff3700091878009fff0700d2ff3700bd
:1012c0000000eb004f04be0000000600881f7800fd
:1012d000630440000800a1008000eb00800f540070
:1012e00021003600e30f540001003e0048002000ba
:1012f00008007800c2ff07008000eb000000e0005b
:10130000190032009000780091017800648151004a
:10131000880f51000300310011019000020878008d
:101320000700370008814000020878009101900012
:101330001301980010017800110914008808780042
:10134000100178000000eb000200e0000400320011
:10135000920190000300e000010032000280e800ea
:10136000e04a88008180e800010078004f0478009e
:1013700000000600800078000000eb000100e000a3
:101380000500340001007800c7fd0700e10f4000b0
:1013900001003a000000eb000000060000c0da0087
:1013a0000000060000c0da000000060000c0da00fd
:1013b00000000600020ab900001bb9000200b800d4
:0c13c00081004200810043000000060094
:020000040000fa
:1013cc007465000073740000200d00000000000024
:020000040000fa
:1013dc000000fa009be0a9009bc0a900800020003f
:1013ec00701d8800b023ef00001a2000b01d88008b
:1013fc00b823ef00009320003040880000932000b9
:10140c00204088009093200010408800909320008a
:10141c00004088000868ef00c0a320000700070008
:10142c00a0a52000140007009bc0a800afe3a800f3
:10143c00b143a8000080fa00000006000200fa0088
:10144c00000f78001e0078000000e00003003a0056
:10145c00c0a3200050408800020037009e00780096
:10146c00514088000080fa00000006000000fa00dd
:10147c000080fa00000006000200fa00000f78005d
:10148c001e0078000000e00003003a00a0a5200038
:10149c0060408800020037009e00780061408800a0
:1014ac000080fa00000006000200fa00a01d800077
:1014bc00004f780050c6b3009e40780080cf50009b
:1014cc0001003a001c68ef001cc8bf000080fb0044
:1014dc001e417800c18a200082707800c1812000f2
:1014ec009140780080c2b30080cf500001003600dc
:1014fc001c68ef001cc8bf000080fb00c18a2000e4
:10150c00614078000004e00010003a001cc8bf00e5
:10151c000080fb000000e900c18a200061407800d7
:10152c000004e00009003a001cc8bf000080fb006a
:10153c000080e900c18a2000614078000004e000ce
:10154c0002003a0010c0b3001de8b7001cc8bf0071
:10155c000040e8001ce8b7008bc0a9000080fa002e
:10156c00000006000200fa000040eb00004f78007b
:10157c00000000001140800000408000808f50006f
:10158c00fcff320010408000104f780010408000ab
:10159c000000e800104088001140800020942000da
:1015ac00808f500002003a00909320001040880079
:1015bc001e4078000080fa00000006000200fa00cd
:1015cc00004f7800000000001c0007000004a2007f
:1015dc000004e000fcff3a00204080001e48780028
:1015ec00204080000000e80020408800214080005e
:1015fc0090932000808f500002003a00009320004e
:10160c00204088009be0a8000080fa000000060043
:10161c000000fa001140800000408000008068004b
:10162c0000f0a7000000ea000000ea004f00de0016
:10163c00004078000080fa00000006000400fa0068
:10164c003140800011079800214080001e0090005e
:10165c00808f5000060031009e00900020408000da
:10166c00008050000000e900000f780005003700f2
:10167c009e009000204080000080500068004000d8
:10168c00000f78001e00780000f0a7000000ea00b0
:10169c000000ea004f00de00004078000080fa00f5
:1016ac00000006000000fa0021408000304080005d
:1016bc00808f500009003a00811d8000001020002e
:1016cc000080600000f0a7000000ea000000ea00c3
:1016dc004f00de0000407800010037000040eb00b6
:1016ec000080fa00000006000400fa0001408000af
:1016fc0011079800104080009e009000808f5000d1
:10170c00060031009e0090001040800000805000c8
:10171c0069004000000f7800040037009e00900024
:10172c001040800000805000000f7800f00f200067
:10173c009e007800808f50000200360000c0eb0045
:10174c00020037001e007800004078000080fa008c
:10175c00000006000400fa003140800011079800d8
:10176c00214080001e009000808f50000600310048
:10177c009e00900020408000008050000000e90096
:10178c00000f7800050037009e009000204080007c
:10179c000080500068004000000f7800f00f20001f
:1017ac009e007800808f50000200360000c0eb00d5
:1017bc00020037001e007800004078000080fa001c
:1017cc00000006000800fa00200798003107980076
:1017dc00c5ff07000080fb00000f78003e00900062
:1017ec009e0f500002003100be009000010f7800e7
:1017fc000000eb00100798000900370059ff0700a4
:10180c00ae009000804878002e0090000000e800a8
:10181c00200798001e0090000000e80010079800b8
:10182c001e0090009e0f5000f4ff39001e0078003f
:10183c000080fa00000006000800fa00200798005b
:10184c0031079800c3ff07000080fb00000f7800f1
:10185c003e0090009e0f500002003100be00900030
:10186c00010f78000000eb0010079800090037000a
:10187c002e00900010407800ae0090008100e8002f
:10188c00210798004dff07001e0090000000e800a3
:10189c00100798001e0090009e0f5000f4ff3900b6
:1018ac001e0078000080fa00000006000400fa0018
:1018bc000000eb00000f78008bff0700204798001a
:1018cc00a4ff0700304798002e4090000080fb00da
:1018dc000000e00003003200e90f5000030032006a
:1018ec00040037001e20a000040037001e00a000da
:1018fc00020037001e10a000000000003e409000c7
:10190c000080fb000000e00003003200e90f5000f3
:10191c0003003200040037001e30a0000200370024
:10192c001e40a000000000001e0078000080fa009d
:10193c00000006000400fa00100798001140800017
:10194c001e009000008f4000020037009e007800bf
:10195c00698f5000209420009e007800808f5000ea
:10196c00faff3e001e007800104078000080fa005c
:10197c00000006000000fa005bff07000080fb007f
:10198c000000e9004f00de00004078000080fa0003
:10199c00000006000000fa006eff07000080fb004c
:1019ac000000e9004f00de00004078000080fa00e3
:1019bc00000006000000fa00801d80000080fa0084
:1019cc00000006000000fa0062ff07000004e000bf
:1019dc00100032003140800020408000808f500089
:1019ec0006003600304080008000780020408000e7
:1019fc00008050000000e9000700370030408000f4
:101a0c00800078002040800000805000680040007a
:101a1c00010037000000eb000080fa000000060017
:101a2c000000fa0030ff07000004e0001000320054
:101a3c001140800000408000808f5000060036006e
:101a4c001040800080007800004080000080500032
:101a5c000000e9000700370010408000800078008b
:101a6c0000408000008050006800400001003700fa
:101a7c000000eb000080fa00000006000000fa00f5
:101a8c00afe3a800b143a8000080fa0000000600f4
:101a9c000000fa00afe3a900b143a9000080fa00ee
:101aac00000006000000fa009980a9009960a900c6
:101abc0080002000c01c88009a23ef00001a200030
:101acc00001d8800a223ef0020942000a040880075
:101adc002094200090408800b09420008040880022
:101aec00b0942000704088001668ef0060da200087
:101afc000700070040dc2000140007009960a800d4
:101b0c0099e3a8009b43a8000080fa00000006009f
:101b1c000200fa00000f78001e0078000000e000c0
:101b2c0003003a0060da2000c04088000200370051
:101b3c009e007800c14088000080fa00000006007a
:101b4c000000fa000080fa00000006000200fa0013
:101b5c00000f78001e0078000000e00003003a003f
:101b6c0040dc2000d0408800020037009e00780046
:101b7c00d14088000080fa00000006000200fa0044
:101b8c00f01c8000004f7800d03380004d00de0048
:101b9c00614060000004a200614060000080fb0016
:101bac00610060004d00dd00d133800001d0a10048
:101bbc0001007000d03388008960a9000080fa0011
:101bcc00000006000200fa000040eb00004f780015
:101bdc00000000008140800070408000808f500029
:101bec00fcff320080408000104f78008040800065
:101bfc000000e80080408800814080004095200073
:101c0c00808f500002003a00b09420008040880081
:101c1c001e4078000080fa00000006000200fa0066
:101c2c00004f7800000000001c0007000004a20018
:101c3c000004e000fcff3a00904080001e48780051
:101c4c00904080000000e8009040880091408000a7
:101c5c00b0942000808f500002003a0020942000a5
:101c6c00904088009980a8000080fa0000000600cf
:101c7c000000fa0081408000704080000080680005
:101c8c0000f0a7000000ea000000ea004f00de00b0
:101c9c00004078000080fa00000006000400fa0002
:101cac00a140800011079800914080001e00900018
:101cbc00808f5000060031009e0090009040800004
:101ccc00008050000000e900000f7800050037008c
:101cdc009e00900090408000008050006800400002
:101cec00000f78001e00780000f0a7000000ea004a
:101cfc000000ea004f00de00004078000080fa008f
:101d0c00000006000000fa0091408000a040800016
:101d1c00808f500009003a00d11c80000010200078
:101d2c000080600000f0a7000000ea000000ea005c
:101d3c004f00de0000407800010037000040eb004f
:101d4c000080fa00000006000400fa0071408000d8
:101d5c0011079800804080009e009000808f5000fa
:101d6c00060031009e0090008040800000805000f2
:101d7c0069004000000f7800040037009e009000be
:101d8c008040800000805000000f7800f00f200091
:101d9c009e007800808f50000200360000c0eb00df
:101dac00020037001e007800004078000080fa0026
:101dbc00000006000400fa00a14080001107980002
:101dcc00914080001e009000808f50000600310072
:101ddc009e00900090408000008050000000e900c0
:101dec00000f7800050037009e00900090408000a6
:101dfc000080500068004000000f7800f00f2000b9
:101e0c009e007800808f50000200360000c0eb006e
:101e1c00020037001e007800004078000080fa00b5
:101e2c00000006000800fa0020079800310798000f
:101e3c00c5ff07000080fb00000f78003e009000fb
:101e4c009e0f500002003100be009000010f780080
:101e5c000000eb00100798000900370059ff07003d
:101e6c00ae009000804878002e0090000000e80042
:101e7c00200798001e0090000000e8001007980052
:101e8c001e0090009e0f5000f4ff39001e007800d9
:101e9c000080fa00000006000800fa0020079800f5
:101eac0031079800c3ff07000080fb00000f78008b
:101ebc003e0090009e0f500002003100be009000ca
:101ecc00010f78000000eb001007980009003700a4
:101edc002e00900010407800ae0090008100e800c9
:101eec00210798004dff07001e0090000000e8003d
:101efc00100798001e0090009e0f5000f4ff390050
:101f0c001e0078000080fa00000006000400fa00b1
:101f1c000000eb00000f78008bff070020479800b3
:101f2c00a4ff0700304798002e4090000080fb0073
:101f3c000000e00003003200e90f50000300320003
:101f4c00040037001e20a000040037001e00a00073
:101f5c00020037001e10a000000000003e40900060
:101f6c000080fb000000e00003003200e90f50008d
:101f7c0003003200040037001e30a00002003700be
:101f8c001e40a000000000001e0078000080fa0037
:101f9c00000006000400fa00100798008140800041
:101fac001e009000008f4000020037009e00780059
:101fbc00698f5000409520009e007800808f500063
:101fcc00faff3e001e007800104078000080fa00f6
:101fdc00000006000000fa005bff07000080fb0019
:101fec000000e9004f00de00004078000080fa009d
:101ffc00000006000000fa006eff07000080fb00e6
:10200c000000e9004f00de00004078000080fa007c
:10201c00000006000000fa00d01c80000080fa00ce
:10202c00000006000000fa0062ff07000004e00058
:10203c0010003200a140800090408000808f500042
:10204c0006003600a04080008000780090408000a0
:10205c00008050000000e90007003700a04080001d
:10206c0080007800904080000080500068004000a4
:10207c00010037000000eb000080fa0000000600b1
:10208c000000fa0030ff07000004e00010003200ee
:10209c008140800070408000808f50000600360028
:1020ac0080408000800078007040800000805000ec
:1020bc000000e900070037008040800080007800b5
:1020cc007040800000805000680040000100370024
:1020dc000000eb000080fa00000006000000fa008f
:1020ec0099e3a8009b43a8000080fa0000000600ba
:1020fc000000fa0099e3a9009b43a9000080fa00b4
:10210c00000006000000fa009021ef0030422f0082
:10211c00900c880000032800a00c8800104180005f
:10212c000000e00002003a00000e2100340007001d
:10213c008860a9009860a800009620008040eb0001
:10214c00014878000080fa00000006000200fa0046
:10215c00000f78009e007800910c880000962000fb
:10216c008040eb00014878000080fa000000060077
:10217c000000fa00900c80000080fa0000000600bd
:10218c000200fa00000f78009e007800810c880095
:10219c00009620008040eb00014878000080fa0097
:1021ac00000006000000fa00800c80000080fa009d
:1021bc00000006000000fa002000200097fe070037
:1021cc005000200095fe07000000eb0093fe070076
:1021dc000000eb0091fe0700f00f20008ffe0700bf
:1021ec000000eb008dfe0700c00820008bfe0700ee
:1021fc009000200089fe07000080fa000000060015
:10220c000200fa00000f78009860a9009e00780088
:10221c00114188009860a8000080fa0000000600b8
:10222c000000fa00009620008040eb000148780086
:10223c009860a80095e1a8000080fa000000060054
:10224c000000fa0095e1a9009860a9000080fa004e
:10225c00000006000200fa0000962000104f7800e3
:10226c001e4078000004e0000300320000962000bd
:10227c008040eb00014878001e4078000080fa0096
:10228c00000006000000fa001096200010407800b4
:10229c000080fb000080fa00000006000000fa003d
:1022ac00109620008040eb00014878000080fa0076
:0422bc000000060018
:020000040000fa
:1022c000100900002000000080000000200800002d
:1022d0000200000082000000ffff00003009000043
:1022e0001200000080000000000800000e00000046
:1022f0008000000060090000020000008000000073
:1023000022080000020000008000000042090000d6
:1023100012000000800000000e0800000e00000007
:102320008000000054090000080000008200000046
:102330000205000000ff00008c090000ac0800004e
:1023400064000000800000001c0800000400000081
:1023500080000000240800008800000082000000c7
:1023600001000000004a08004b084a00084a080023
:102370004a084a00083a0800000000000000000077
:10238000000000000000000000000000000000004d
:10239000000000000002080001017200087308003c
:1023a00072087200087208007208620008000000db
:1023b000000000000000000000000000000000001d
:1023c00000000000000000000000020008020200ff
:1023d0009a089b00089a08009a089a00089a080030
:1023e0008a0800000000000000000000000000005b
:1023f00000000000000000000000000000000000dd
:1024000024084c00087408000000000000000000d0
:10241000000000000000000062090000020000004f
:10242000800000006409000002000000820000003b
:10243000040000005c0900000400000080000000af
:102440006609000002000000820000000100000098
:102450006809000002000000800000000000000089
:020000040000fa
:102460000200fa000040eb00004f7800090037003e
:10247000000000000000000000000000000000005c
:10248000000000000000000000000000000000004c
:102490001e4fe80030c6b3009e40780080cf500049
:1024a000f3ff3600da0007007b86a8007ba6a800b1
:1024b000609e28009ef907008ec6a9008ee6a8003f
:1024c00000000000c1338000000820000080600090
:1024d0000000e000fbff320000ccb300d2fd07009b
:1024e0000040eb00d0fd070090c0b300cefd070018
:1024f00000c0eb00ccfd070000c0eb00cafd0700e8
:102500000040eb00c8fd070020c6b300c6fd070071
:102510000040eb00c4fd070070c1b300c2fd07001e
:1025200030c0b300c0fd07000040eb00befd070057
:102530000040eb00bcfd07000040eb00004f7800be
:10254000090037000000000000000000000000004b
:10255000000000000000000000000000000000007b
:10256000000000001e4fe80030c6b3009e40780017
:1025700080cf5000f3ff36008ee6a900ffff370042
:102580000000fa006626ef0000022300d033880026
:10259000001820007034880070f92700103388007c
:1025a000f0fd2c00b0338800f02320005034880068
:1025b0007426ef008826ef009c26ef007226ef00bd
:1025c0008626ef009a26ef006826ef007c26ef00b3
:1025d0009026ef003000200050338800c0202c00ef
:1025e000f0338800f000200090348800010880005b
:1025f000f00b2000008160006004200071052000c5
:1026000003102000804978008149780082497800d1
:10261000b13d800000fc2f00008060006000b3002e
:10262000b03d8800a13d800000fc2f0000806000cc
:102630009001b300a03d8800c13e8000f00f28004b
:10264000808060000050200001007000c03e8800c3
:10265000613f800000f82f00008060003000b30070
:10266000603f880000088000000178000260a00040
:1026700060042000710520000310200080497800cc
:1026800081497800824978000080fa000000060045
:102690000000fa0000002300100888000621ef0067
:1026a0006821ef006a21ef000821ef000070200090
:1026b000500888000c21ef000e21ef007821ef0078
:1026c0007a21ef007c21ef007e21ef008021ef00d6
:1026d0008221ef008421ef008621ef0032002000ec
:1026e00080072000a10920001310200080497800f5
:1026f000814978008249780012002000600420009f
:10270000710520000310200080497800814978007d
:10271000824978000000000000088000610060002d
:102720000000e000fcff3a0000000000010880000b
:1027300000022000008060000000e000fbff32008b
:102740000080fa00000006000000fa004106800048
:10275000f08f2f00008060000080a00040068800fd
:10276000b1058000f0ff28000080600000c0a000dc
:10277000b0058800b1058000f08f2f000080600058
:102780000080a000b005880041068000f0f82f000e
:10279000008060000040a0004006880071058000b5
:1027a00080ff2f00008060000000a00070058800fe
:1027b00061058000f0ff28000080600000c0a000dc
:1027c0006005880041058000f0ff2800008060005f
:1027d00000c0a000400588000080fa00000006004c
:1027e0000200fa00000f78009e0078000141880086
:1027f000ffff37000000fa000091200080077800fa
:1028000080922000000188000080fa00000006008d
:102810000000fa005aff0700cbff07009cff0700eb
:10282000eefa07003afe0700a1fc07000080fa005c
:04283000000006009e
:020000040000fa
:020000040002f8
:04be0000ffffff0041
:020000040000fa
:020000040002f8
:04be2000ffffff0021
:020000040000fa
:020000040002f8
:04be300020ffff00f0
:020000040000fa
:020000040002f8
:04be380072ffff0096
:020000040000fa
:020000040002f8
:04be40009fffff0061
:020000040000fa
:020000040002f8
:04be4800ffffff00f9
:020000040000fa
:020000040002f8
:04be5000dfffff0011
:020000040000fa
:020000040002f8
:04be5800ffffff00e9
:00000001FF
